S01700004763634170706C69636174696F6E372E7372656355
S11300000C9434000C94C4000C9400010C94510022
S11300100C9451000C9451000C9451000C94510018
S11300200C9451000C9451000C9451000C94510008
S11300300C9451000C9451000C9451000C945100F8
S11300400C9451000C9451000C9451000C945100E8
S11300500C9451000C9451000C9451000C945100D8
S11300600C9451000C94510011241FBECFEFD8E022
S1130070DEBFCDBF11E0A0E0B1E0E6EEF3E002C0E8
S113008005900D92A633B107D9F721E0A6E3B1E0BC
S113009001C01D92AC34B207E1F70E948B010C94AD
S11300A0F1010C940000982F907F9BB995B19E7F2D
S11300B095B995B19D7F95B995B1946095B9EFE9DE
S11300C0FFE03197F1F700C0000095B19B7F95B92F
S11300D0F0E18F9FC00111248BB985B1846085B98B
S11300E08FE99FE00197F1F700C0000085B18B7F95
S11300F085B90895982F907F9BB995B1916095B972
S113010095B19D7F95B995B1946095B9EFE9FFE0FC
S11301103197F1F700C0000095B19B7F95B9F0E1EC
S11301208F9FC00111248BB985B1846085B98FE993
S11301309FE00197F1F700C0000085B18B7F85B97E
S11301400895CF93DF93EC0103C00E947A002196B7
S113015088818111FACFDF91CF91089584B18760AE
S113016084B98AB1806F8AB982E00E94530088E220
S11301700E9453008CE00E94530086E00E945300CA
S113018080E80E94530008951F920F920FB60F92B9
S113019011242F933F934F935F936F937F938F9388
S11301A09F93AF93BF93EF93FF9380EC0E94530010
S11301B08091360190913701019690933701809395
S11301C0360180913601909137014AE050E068E3AE
S11301D071E00E94B10188E391E00E94A100FF91C7
S11301E0EF91BF91AF919F918F917F916F915F91AB
S11301F04F913F912F910F900FBE0F901F90189524
S11302001F920F920FB60F9211242F933F934F9387
S11302105F936F937F938F939F93AF93BF93CF938A
S1130220DF93EF93FF9380E80E94530080E091E016
S11302300E94A100C0913601D091370126C0CA3076
S1130240D10524F080EC0E9453000AC080EC0E9487
S113025053008DE091E00E94A10081EC0E945300C4
S11302604AE050E068E371E0CE010E94B10188E306
S113027091E00E94A1002FEF83ED90E32150804094
S11302809040E1F700C000002197DD23C4F61092EE
S113029037011092360185B1886085B92FEF83ED5F
S11302A090E3215080409040E1F700C0000085B108
S11302B0877F85B92FEF83ED90E3215080409040F4
S11302C0E1F700C0000080EC0E9453008FE091E051
S11302D00E94A10080E80E9453008FE091E00E94F8
S11302E0A10080E80E94530080E291E00E94A100F6
S11302F0FF91EF91DF91CF91BF91AF919F918F913A
S11303007F916F915F914F913F912F910F900FBE0D
S11303100F901F90189584B1886184B90E94AE0033
S11303208BE291E00E94A10080EC0E945300E9E678
S1130330F0E080818A60808380818A7F80838DB3AE
S113034083608DBB789495B180E1892785B92FEFBF
S113035083EC99E0215080409040E1F700C0000018
S1130360F2CF4532510520F4423010F00C94BC0118
S1130370FB011082CB010895BB274A3031F4992345
S113038022F4BDE2909581959F4F0C94C801BB2740
S1130390FB015527AA27880F991FAA1FA41710F03D
S11303A0A41B83955051B9F7A05DAA3308F0A95D49
S11303B0A193009779F7B111B1931192CB010C94E9
S11303C0E101DC01FC01672F71917723E1F732979A
S11303D004C07C916D9370836291AE17BF07C8F31C
S10903E00895F894FFCF1C
S11303E654696D6572205374617274730030002011
S11303F62020202020202020202020202020200013
S1130406456E7465722054696D6500656E74657217
S10904162074696D65000D
S9030000FC
